:020000040000FA
:1000000058110010A1010000A9010000AB0100007F
:1000100000000000000000000000000000000000E0
:10002000000000000000000000000000AD01000022
:100030000000000000000000250100007B240000FB
:10004000B3010000B3010000B3010000B3010000E0
:10005000B3010000B3010000B3010000B3010000D0
:10006000B3010000B3010000B3010000B3010000C0
:10007000B3010000B3010000B3010000B3010000B0
:10008000B3010000B3010000B3010000B3010000A0
:10009000B3010000292B0000B3010000B3010000F0
:1000A000B3010000B3010000B3010000B301000080
:1000B000B3010000B3010000B3010000B301000070
:1000C0000348854602F0EEFF004800476129000022
:1000D000581100100F4C01252570774602F03CFAAC
:1000E000BE460D4E36680D4C26603268954601BC02
:1000F0000B490860F0BC0FBC8046894692469B467F
:1001000004B00FBC8446964688B00FBC04B062B6FB
:10011000704700BF24000010340000102C000010B5
:100120004800001072B6F0B44046494652465B465D
:100130000FB4744602F010FAA6460E49086801B4DE
:100140000D4A1268684610600C4C0D4D2E782670D2
:100150000C4E3668084C26603068854601BC086045
:10016000002800D162B60FBC8046894692469B4665
:10017000F0BC7047480000102C0000102000001058
:100180002100001034000010002080F31488704714
:10019000012080F3148870478847FF2001F08AFE11
:1001A0000448804704480047FEE7FEE7FEE7FEE715
:1001B000FEE7FEE771040000C10000004949896BB9
:1001C00020229143474A91630021474A116200204F
:1001D00002E000BF411CC8B2C828FADB0121424A34
:1001E000403211605160002151600121516000BF17
:1001F0003D4940314968C907C90F0029F8D023217A
:10020000394A91603749896B80229143354A91631D
:1002100000BF3549C968C907C90F0029F9D00321B2
:10022000314A4032116301215163002151630121A0
:10023000516300BF2C494031496BC907C90F0029E0
:10024000F8D00121284A403291632749803109685A
:1002500040221143244A8032116070472249803184
:1002600009680122120411431F4A80321160D12112
:100270001E4A11611C498031096801221204914310
:10028000194A803211601849C03188620321164A28
:10029000C03211620121516200215162012151627B
:1002A00000BF1149C031496AC907C90F0029F8D0F8
:1002B000704718214143491E0D4A51610021916147
:1002C0001146096903221143094A116100BF094916
:1002D00009680029FBD00021064A1160044A116117
:1002E0007047000000820440008004400040044049
:1002F00000E000E06C00001070470000FFFFFFFF0F
:1003000010B500248048406AC005000F030002F0C9
:10031000EFFE10090B0D0F11131517191B1D1F21CF
:100320002325272900241DE0784C1BE0784C19E098
:10033000784C17E0784C15E0784C13E0784C11E0DD
:10034000784C0FE0784C0DE0784C0BE0784C09E0ED
:10035000784C07E0784C05E0784C03E0784C01E0FD
:10036000784C00BF00BF6848406AC006800E811C00
:10037000204602F049FE044663484030006B800787
:10038000800F002806D0012808D0022823D0032897
:1003900063D123E06C486D4908605EE05A48403004
:1003A00000688007800F002806D0012808D00228A6
:1003B0000AD003280DD108E063486449086008E0CA
:1003C00061486249086004E000BF00205F4908609E
:1003D00000BF00BF41E05D4804603EE04A48403055
:1003E00000688007800F002806D0012819D0022855
:1003F0002CD003282FD12AE043488068FF21813187
:100400000840002803D050485049086008E03E48A2
:100410008068C006C00E401C4B4948434B490860E9
:1004200019E039488068FF2181310840002803D055
:1004300045484649086008E033488068C006C00E59
:10044000401C414948434149086004E000BF002086
:100450003E49086000BF00BF00BF00BF2A484030CF
:10046000816B3A48006802F0CFFD3849086010BD42
:1004700008B53748806B20218843354988630020C0
:1004800021490862009003E000BF0098401C0090E2
:100490000098C828F8D301201B4940310860486003
:1004A000002048600120486000BF17484030406885
:1004B000C007C00F0028F8D02320134988602448C3
:1004C000806B802188432249886300BF0E48C06842
:1004D000C007C00F0028F9D003200B494031086342
:1004E00001204863002048630120486300BF06489C
:1004F0004030406BC007C00F0028F8D001200249EF
:100500004031886308BD00000080044020A107003E
:1005100000350C00E0C81000C05C1500006A18002F
:1005200040771B0080841E00C0912100009F2400A2
:1005300040AC2700E032290020402C00604D2F0005
:1005400000D4300040E13300001BB7000000001071
:100550000082044000BF03E07D20000101F072FE34
:10056000F74800780028F7D06421F648006802F0C8
:100570004BFD044600BF01F06AFFF3480068F349F1
:100580000860F14806680020EF49086001F066FF46
:10059000002C0FD02146304602F036FD6421081AA7
:1005A00045B2002D02DBEA4805700CE00020E84966
:1005B000087008E00020E64908706421E1480068FE
:1005C00002F022FD044601F0C8FF7D20C00001F0CA
:1005D00039FED0E700B585B0032000218022DD4B35
:1005E0000193029203910490DB480623DB4A0090BA
:1005F000DB4801F00AFC05B000BD00BF00BF01F000
:1006000026FFD1480068401CCF49086001F026FF52
:1006100001F0A7FFF3E700B585B0032000214022D9
:10062000D04B0193029203910490CB48401C0723C6
:10063000CC4AFC320090CC4801F0E7FB05B000BD8D
:1006400010B5CA4802460C32002106E000230370B0
:1006500042600C300C324B1C99B21329F6DB00239C
:1006600003704360C14BC24C236010BD30B5002302
:10067000C04C2360002005E000238400BE4D2B51B8
:10068000431CD8B20828F7DBBC490A4634320020A4
:1006900004E04A6134313432431CD8B20728F8DB15
:1006A00000234B61B54BB64C236030BD0022B54BE7
:1006B0001A70B549002004E000220A70491C421C4F
:1006C00090B20128F8DB0022B04B1A70B04B1A70C0
:1006D000B04B1A60B04B1A6070470020AF490860F9
:1006E000AF490870AF490870AF490870AF4908704A
:1006F000AF490860944908609449086091490860CE
:100700008F490870704710B501F020FFFFF7E5FF33
:10071000FFF7CCFFFFF7AAFFFFF792FF00F0BFFD46
:1007200000F0F9FF01F066FAFFF775FFFFF752FFDF
:1007300001F00DFF10BD9D480078012808D19848B0
:100740000078FF2804DA96480078401C9449087025
:10075000704710B59548007801283AD101F077FE2E
:100760008F480078002804DD8D480078401E8C49B1
:1007700008708B480078002829D18A480078002822
:1007800025D18C487F490978405C8B490870084620
:100790000078C0007C49884A1278895C854A515C9F
:1007A00040187B49087008460078784909788842E3
:1007B0000DD07748007880006F4908587549086067
:1007C0007B480068401C7A49086001F07EFE01F019
:1007D00045FE10BD10B57548007801280CD101F018
:1007E00036FE70480078FF2804DA6E480078401C16
:1007F0006C49087001F032FE10BD10B501F027FE03
:1008000067480078002823D16648007800281FD167
:1008100068485C490978445CE0005B49095D654AC9
:10082000515C40185A4908700846007857490978C1
:1008300088420DD05648007880004F4908585549E5
:1008400008605B480068401C5949086001F03DFEA3
:1008500001F004FE10BD10B55448007801281CD1E9
:1008600001F0F5FD4F480078002814DD4D48007870
:10087000401E4C49087008460078002808D14848B6
:100880000078002804D101F0E9FDFFF7B6FF04E08D
:1008900001F0E4FD01E001F0E1FD10BD70B5434859
:1008A000007800281CD1434836490978445C364812
:1008B000005D40490D5CE00040193549087008466C
:1008C0000078324908703248007880002A49085878
:1008D00030490860084600682F49086001F0D5FDDE
:1008E00070BD10B5022001F0ADFC01F0B0FD00209C
:1008F0001549086001F0B2FD7D20C00001F0A2FCA6
:1009000001F0A5FD104800680E49086001200C495F
:10091000087001F0A3FD10BD10B501F021FE01F03B
:1009200096FD1E480068401C1C49086001F096FDB9
:100930001E48007801286ED10E48046867E0000068
:100940001C000010140000102800001018000010F7
:10095000100000109C010010FEFF00009803001022
:10096000550500009C030010FB0500007C000010F2
:1009700008000010380000109C040010BC04001097
:100980003000001022000010230000102000001092
:1009900021000010340000102C0000104400001052
:1009A0001D0000101F000010250000102400001082
:1009B000040000104C3500001E00001001F047FD3F
:1009C000608D002820D0608D401E80B26085002898
:1009D0001AD12C20005D08210840002812D13120B6
:1009E000005D974909780843954908702F20005DFC
:1009F0009449085C3021095D08432F21095D914A23
:100A0000505401E001206085646901F027FD2D202C
:100A1000005D0728D2D110BDFC2070477047F7B5A4
:100A200081B003465878884F3A5C8848865C1846FF
:100A30000830805C3C5C8548055DD0000019C0B280
:100A4000009018460830805CA8431F460837B85409
:100A5000002802D15878B0435870009880007C4F2D
:100A6000395800204885C861029808622C20405CF3
:100A7000039FB8432C2778542C20405C002809D1D0
:100A80006F48007830436E4F38706E48805C284362
:100A90006C4FB854009804B0F0BD6E490968C86145
:100AA0006C4909682031C97B664A515C694A126801
:100AB0002032127C9143674A12682032D27B614B0C
:100AC0009954002908D16349096820314A7C5C495E
:100AD000097891435A4A11705E4909682031CA7BEE
:100AE00001460831895C5B4A12682032127C11434E
:100AF000584A12682032D37B02460832D1544178DA
:100B0000544A12682032527C114341707047514957
:100B100009682031CA7B01460831895C4D4A126858
:100B20002032127C91434B4A12682032D37B02461A
:100B30000832D154002906D14178464A1268203241
:100B4000527C9143417000224249096820310A7366
:100B50000021404A1268D16170470022427001466C
:100B600008310A70491C7047FFB581B005460E4632
:100B7000174601F06CFC38480468002C5CD03649FC
:100B80006069086001F06AFC26602D20055500218F
:100B90002C200155002060850B9860600A98E06069
:100BA000A7600C9820820498608232200155E910D9
:100BB0002F200155005D2549095C31200155690749
:100BC000490F2E200155005D2049095C3020015558
:100BD0000020E06160622062204601F0BFFC2046F8
:100BE00001F0B6FC01F033FCA80019490C501B4879
:100BF000006860610020A06118480068002802D0E9
:100C0000164800688461154804603120005D0C4975
:100C1000097808430A4908702F20005D0949085CDB
:100C20003021095D08432F21095D064A505401F027
:100C300015FC002005B0F0BD01F010FC4620F9E7DE
:100C400022000010230000104C3500004435000045
:100C50009C0400102C000010300000103800001020
:100C6000FFB583B004460F461E46002C04D19620E3
:100C70003070002007B0F0BD2078052803D0012097
:100C800030700020F6E7802105980840002805D044
:100C90000598884305900120019001E00020019013
:100CA0000020307001F0D3FB059800282AD00128DD
:100CB0003BD0022802D003284AD111E025893D40CB
:100CC000BD4206D10198012805D12089A843208181
:100CD00001E0982030702089029001F0BFFB3EE0D7
:100CE00025893D40002D06D00198012805D1208995
:100CF000A843208101E0982030702089029001F003
:100D0000ADFB2CE020893D468543BD4206D10198CC
:100D1000012805D120892843208101E098203070E6
:100D20002089029001F09AFB19E020893D46854315
:100D3000002D06D00198012805D120892843208163
:100D400001E0982030702089029001F087FB06E0D6
:100D500001F084FB002002909720307000BF00BF9C
:100D6000029887E770B506460D46F74800780028D8
:100D700003DD8D202870002070BD01F068FBF34872
:100D80000468002C0DD000684068F0490860052018
:100D9000207026810020606001F060FB0020287038
:100DA00003E001F05BFB9A2028702046E4E730B5B1
:100DB00001464A680868002A06D1CC6860600028AD
:100DC00006D00025456003E01060002800D0426096
:100DD0008B6800255D6230BDF0B506460F46B468ED
:100DE0000020608527852C20005D202188432C2150
:100DF00008552C20005D002813D13120005DD44916
:100E000009780843D24908702F20005DD149085C59
:100E10003021095D08432F21095DCE4A5054012538
:100E200000E000253046FFF7C2FF2846F0BDF7B5C9
:100E300004461546C4480078002803DD8C2028703D
:100E40002046FEBD002C03D1962028702046F8E7EE
:100E50002078052803D0012028702046F1E701F012
:100E6000F6FA6068002801D0012600E0002601980B
:100E7000002802D001282DD113E0002E0BD1002034
:100E80002070B24800686060B048046001F0E6FA83
:100E900000202870D5E701F0E1FA082028702046EC
:100EA000CFE7676804E000213846FFF795FF3F6809
:100EB000002FF8D100202070A44800686060A3488B
:100EC000046001F0CBFA012E01D1FFF796FC00205F
:100ED0002870B6E701F0C2FA072028702046B0E774
:100EE000F0B59D4D2D6820352D7B202635439A4E3B
:100EF000366820363573984E059D36687585964D53
:100F00002D6869620A828B74934D2D688D604568E7
:100F10000D6000254D60C8604468002C00D0616001
:100F200041608D4D2D682035ED7B8A4E755D8A4E72
:100F300036682036367CB543874E36682036F67BD9
:100F4000844FBD55002D08D1834D2D6820356E7C12
:100F50007F4D2D78B5437E4E3570F0BDFFB589B01D
:100F600004460F46129E78480078002804DD0220CF
:100F7000307000200DB0F0BD002C03D196203070F1
:100F80000020F7E72078052803D0012030700020EA
:100F9000F0E780210B980840002805D00B98884383
:100FA0000B900120029001E00020029001F04FFA26
:100FB0000B98002840D001285CD0022802D00328DA
:100FC00077D11CE025893D40BD420DD10298012812
:100FD00002D12089A84320812089039001F03EFAA4
:100FE000002030700398C5E70C9800903A4604A999
:100FF00020460B9BFFF774FF01F030FA61E0258972
:101000003D40002D0DD00298012802D12089A8432F
:1010100020812089039001F021FA0020307003988C
:10102000A8E70C9800903A4604A920460B9BFFF7CE
:1010300057FF01F013FA44E020893D468543BD4245
:101040000DD10298012802D12089284320812089CE
:10105000039001F003FA0020307003988AE70C989F
:1010600000903A4604A920460B9BFFF739FF01F098
:10107000F5F926E020893D468543002D0DD00298E4
:10108000012802D12089284320812089039001F082
:10109000E5F90020307003986CE70C9800903A4610
:1010A00004A920460B9BFFF71BFF01F0D7F908E0CE
:1010B000FFE701F0D3F900200390972030700398E8
:1010C00058E700BFFFF799FB01F0C1F9224800681B
:1010D0002030007B2021084000280ED004A8FFF714
:1010E00066FE00211C4800682030017301F0B6F94B
:1010F000002003900A20307023E0029801281AD1C2
:101100000B9800280ED001280DD0022802D0032809
:1011100010D100E000BF20890F490968098D88437C
:10112000208107E000BF20890B490968098D084329
:10113000208100BF00BF2089039001F08FF90020BB
:101140003070039816E700001D0000100C0000101E
:1011500022000010230000102C000010FFB583B007
:1011600004461E46002C04D196203070002007B0A3
:10117000F0BD2078052803D0012030700020F6E76C
:1011800001F065F90598002802D001280AD104E091
:1011900021890498814321810AE020890499084328
:1011A000208105E001F05AF9992030700020DEE737
:1011B00000BF00200290656845E0A87C002823D08D
:1011C000012830D0022802D003283AD10EE020892D
:1011D000298A08400746288AB84206D13946284657
:1011E000FFF7FAFD012800D102902AE02089298A20
:1011F00008400746002F06D039462846FFF7ECFD89
:10120000012800D102901CE0288A218988430746E2
:10121000288AB84206D139462846FFF7DDFD012865
:1012200000D102900DE0288A218988430746002FCB
:1012300006D039462846FFF7CFFD012800D102909D
:1012400000BF00BF2D68002DB7D101F007F902984B
:10125000012801D1FFF7D1FA01F0F9F820890190B6
:1012600001F0FCF800203070019880E770B504466A
:101270000D46002C03D196202870002070BD2078E8
:10128000052803D0012028700020F7E701F0DFF8DF
:10129000268901F0E3F8002028703046EEE710B50B
:1012A000094802460C32002106E000230370426028
:1012B0000C300C324B1CD9B20329F6DB00234360FF
:1012C000014B024C236010BD6C0100100C0000109B
:1012D00070B50446002C00D170BD2078012801D0E3
:1012E0000020F9E701F0B3F865680020606001F0C4
:1012F000B5F82846F0E770B50546AC4800780028F8
:1013000001DD002070BD01F0A2F8A9480468006862
:10131000002804D0A64800684068A549086001F08C
:101320009DF8002C07D001202070002060806560AF
:101330002046FFF712FC2046E4E7F8B504460F46C6
:1013400015469A480078002803DD8C202870204636
:10135000F8BD002C03D1042028702046F8E720783F
:10136000012803D0012028702046F1E701F06FF832
:101370006078002801D0012600E00026002F02D06E
:10138000012F2CD113E0002E0BD1002020708848B3
:10139000006860608648046001F060F800202870F2
:1013A000D6E701F05BF8082028702046D0E704E07B
:1013B000022200212046FFF732FB60780028F7D197
:1013C00020707B48006860607948046001F046F84E
:1013D000012E01D1FFF711FA00202870B8E701F0C3
:1013E0003DF8072028702046B2E7F8B505460F46BD
:1013F00014466E480078002803DD0220207000208B
:10140000F8BD002D03D1042020700020F8E72878D3
:10141000012803D0012020700020F1E701F017F827
:101420006E68002E07D00020686001F017F80020D9
:1014300020703046E4E75F4800682030007B0221DE
:1014400008435C490968203108735A480068478599
:101450002846FFF722FB01F001F8FFF7CEF900F074
:10146000F6FF54480068066A002E12D00020514949
:101470000968086200214F4800682030017300208D
:101480004C490968C86100F0E9FF0020207030462F
:10149000B6E72846FFF73BFB00F0E0FF0A2020708C
:1014A0000020ADE770B504460D46002C01D10420A4
:1014B00070BD002D01D10320FAE72078012801D06A
:1014C0000120F5E700F0C3FF607800280AD002226F
:1014D00029462046FFF7A3FA00F0C0FFFFF78DF979
:1014E0000020E5E76068002803D000F0B7FF142073
:1014F000DEE7656000F0B2FF0020D9E770B5044672
:101500000D461646002C01D1042070BD002D01D1DE
:101510000320FAE72078012801D00120F5E700F048
:1015200096FF6078002818D0F007C00F002809D077
:1015300004E0022229462046FFF771FA607800286D
:10154000F7D104E0022229462046FFF768FA00F0AE
:1015500085FFFFF752F90020D7E76068002803D025
:1015600000F07CFF1420D0E7656000F077FF0020DA
:10157000CBE7F8B504460D46002C01D10420F8BD98
:101580002078012801D00120F9E700F060FF6078A1
:101590006871264608362F1D30783870761C7F1CFF
:1015A0006068286000F05AFF0020E8E71D00001086
:1015B000080000102C000010FFB583B005460F4650
:1015C0001E46002D04D176203070002007B0F0BDFB
:1015D000022F03D26F2030700020F7E7059804280F
:1015E00003D2702030700020F0E700F030FF584840
:1015F00004680068002804D05548006840685449D1
:10160000086000F02BFF002C03D16E20307000200A
:10161000DCE70195059828180290002000900BE067
:101620000199029808600298019005990298401863
:1016300002900098401C0090781E00998842EFD8D4
:10164000002101980160256065602761E7600598C9
:10165000A060002030702046B8E770B504460D4603
:10166000002C03D174202870002070BD00F0EFFE24
:10167000206900280BD06668306860602069401ED1
:10168000206100F0EBFE002028703046EDE700F00E
:10169000E5FE712028700020E7E770B504460D468E
:1016A000002C01D1742070BD002D01D17320FAE708
:1016B00000F0CDFEE1682069884203D300F0CEFE41
:1016C0007220F0E76068286065602069401C206136
:1016D00000F0C4FE0020E6E770B505460C46002D7C
:1016E00001D1742070BD002C01D17520FAE700F003
:1016F000AEFE2868206068686060A868A060E8683E
:10170000E0602869206100F0A9FE2169E068401AC4
:1017100060610020E6E70F4800210DE04A1C142319
:101720005A430C4BD2184260002202600261C26030
:10173000826014304A1C91B20129EFDB0022426022
:1017400002600261C2608260024A014B1A60704707
:101750003C0000105C06001070B50546002D00D15D
:1017600070BD2878022801D00020F9E700F06FFE54
:101770006C68E08A00280DDD2169081D20610E6873
:10178000E08A401EE082A1682069884203D1606837
:10179000206100E0002600F061FE3046E0E7F8B589
:1017A00006460F46F8480078002801DD0020F8BD05
:1017B00000F04DFEF54805680068002804D0F348A5
:1017C00000684068F149086000F048FE002D25D00F
:1017D00000F03DFEEE480468002C17D00068006859
:1017E000EB49086000F03AFE6660B8008019A0601E
:1017F000E6602661A7820020E08202202870002097
:1018000068806C602846FFF7A8F907E0DF480068A9
:101810006860DE48056000F021FE00252846C6E726
:10182000F7B504461546D8480078002803DD8C201B
:1018300028700020FEBD002C03D104202870204613
:10184000F8E72078022803D0012028702046F1E72D
:1018500000F0FDFD6078002801D0012700E000279E
:101860000198002802D0012839D119E0002F11D1A8
:101870006668C74800683060C54806600020207070
:10188000C24800686060C148046000F0E7FD0020C5
:101890002870CFE700F0E2FD082028702046C9E755
:1018A00004E0042200212046FFF7B9F86078002800
:1018B000F7D16668B64800683060B5480660002019
:1018C0002070B24800686060B048046000F0C6FD57
:1018D000012F01D1FEF791FF00202870AAE700F048
:1018E000BDFD072028702046A4E770B50546002DF1
:1018F00001D1042070BD2878022801D00120F9E729
:1019000000F0A5FD6C686068E06060682061002000
:10191000E08200F0A3FD0020ECE7F7B5064615468F
:1019200099480078002803DD022028700020FEBDC1
:10193000002E03D1042028700020F8E73078022818
:1019400003D0012028700020F1E700F080FD7468CA
:10195000E08A002812DD2169081D20610F68E08AF5
:10196000401EE082A1682069884201D16068206140
:1019700000F074FD002028703846D8E785480068DC
:101980002030007B04210843824909682031087314
:1019900080490198096848853046FFF77EF800F0D5
:1019A0005DFDFEF72AFF00F052FD7A480068076AE5
:1019B000002F12D00020774909680862002175487D
:1019C000006820300173002072490968C86100F086
:1019D00045FD002028703846A9E73046FFF797F804
:1019E00000F03CFD0A2028700020A0E770B50546F5
:1019F0000E46002D01D1042070BD002E01D1032020
:101A0000FAE72878022801D00120F5E700F01FFD51
:101A1000687800280AD0042231462846FEF7FFFFE6
:101A200000F01CFDFEF7E9FE0020E5E76C68E08AA7
:101A3000A18A884203DB00F011FD1E20DCE7E1688B
:101A4000081DE0600E60E08A401CE082A168E0684A
:101A5000884201D16068E06000F000FD0020CBE723
:101A600070B505460E46002D01D1042070BD002E34
:101A700001D10320FAE72878022801D00120F5E7F8
:101A800000F0E5FC687800280AD004223146284698
:101A9000FEF7C5FF00F0E2FCFEF7AFFE0020E5E731
:101AA0006C68E08AA18A884203DB00F0D7FC1E2024
:101AB000DCE761682069884201D1A0682061206963
:101AC000001F206120690660E08A401CE08200F06F
:101AD000C5FC0020CAE7F8B505460E461746002D9E
:101AE00001D10420F8BD002E01D10320FAE72878A7
:101AF000022801D00120F5E700F0A9FC6878002851
:101B000018D0F807C00F002809D004E0042231469D
:101B10002846FEF784FF68780028F7D104E0042205
:101B200031462846FEF77BFF00F098FCFEF765FE85
:101B30000020D7E76C68E08AA18A884203DB00F0C6
:101B40008DFC1E20CEE70220384000280BD06168B3
:101B50002069884201D1A06820612069001F2061AE
:101B60002069066009E0E168081DE0600E60A16878
:101B7000E068884201D16068E060E08A401CE08251
:101B800000F06CFC0020ADE71D0000100800001004
:101B9000400000102C000010F8B505460C46002D42
:101BA00001D10420F8BD2878022801D00120F9E7EE
:101BB00000F04DFC687860722F46083720460830E8
:101BC00000903978009801707F1C0098401C0090AC
:101BD0006E68F08A002803DD30690068206001E04B
:101BE00000202060F08AA080B08AE08000F036FCFF
:101BF0000020D7E710B5094802461832002104E05A
:101C00000260183018324B1C99B20329F8DB00230C
:101C10000360024B024C236010BD000084060010DC
:101C200040000010F3B583B00E460398072802DB8E
:101C30000398FF2801D1072E02DB2A2005B0F0BD52
:101C400000F005FCB000F9490858002803D000F066
:101C500005FC2820F2E70120B100F44A505000F0C2
:101C6000FDFBF710F248C05D00907007400F029036
:101C7000EF490298085C019000F0E9FB0398FF2807
:101C800004D1EC4800682030407B0390039880002A
:101C9000E6490C58002C67D0002103988000E34AE5
:101CA00011502F20005DE449085C3021095D084097
:101CB000002820D02F20005DDF49085C3021095D1D
:101CC00088432F21095DDC4A5054002806D1312079
:101CD000015DDA4800788843D8490870D748007811
:101CE00000990843D5490870D348C05D019908435D
:101CF000D149C85522E0E569002D1FD02F20015D94
:101D000028460830405C3021095D88432F210A5D58
:101D1000294608318854002804D168783121095DAA
:101D200088436870687800990843687028460830CE
:101D3000C05D0199084329460831C855B000BB4928
:101D40000C502D2006552F2007552E21029808559E
:101D500031210098085530210198085500F07EFB8C
:101D6000FEF74BFD002069E70020B100AF4A50505C
:101D700000F074FB292061E7FFB585B006460F46E9
:101D80001C46072C02DD2A2009B0F0BD00F05FFBE5
:101D9000A000A6490858002833D10120A100A34A79
:101DA000505000F05BFB002339463046079A00F0A4
:101DB00092FB04900020009001900346024602909E
:101DC00020460499FEF7D0FE0546002D0FD100F005
:101DD0003EFB9B480078401C9949087000F03EFB90
:101DE0009848007801280AD1FEF707FD07E000F0C7
:101DF0002EFB0020A1008D4A505000F02FFB2846FA
:101E0000C2E700F02BFB2820BEE7FFB585B01C46DB
:101E10000F9F129D072C02DD2A2009B0F0BD00F0B3
:101E200016FBA0008149085800283FD10120A100DD
:101E30007E4A505000F012FBE807C00F002803D183
:101E400002202840002804D010988100384601F074
:101E50000AF92B4605A807C800F03DFB049011992C
:101E600010986A4623C23A4620460E9B0499FEF714
:101E70007BFE0646002E0FD100F0E9FA704800788C
:101E8000401C6F49087000F0E9FA6E48007801289C
:101E90000AD1FEF7B2FC07E000F0D9FA0020A10059
:101EA000624A505000F0DAFA3046B6E700F0D6FA4F
:101EB0002820B2E7F8B5054663480078002801DD20
:101EC0003F20F8BD072D01D13D20FAE7072D03DBA8
:101ED000FF2D01D02A20F4E700F0B9FAFF2D03D13D
:101EE000544800682030457BA80050490C58002C0D
:101EF00074D02F20005D5049085C3021095D884373
:101F00002F21095D4C4A5054002806D13120015D33
:101F10004A480078884349490870E669002E13D082
:101F20002F20015D30460830405C3021095D884338
:101F30002F210A5D314608318854002804D1707879
:101F40003121095D88437070676A002F02D03846DE
:101F5000FEF72DFF0020608500212C2001553B4815
:101F60000078FF2804DA39480078401C37490870A7
:101F700000F074FAFEF752FD00F069FA3348007879
:101F8000002804DD31480078401E304908702046A2
:101F900000F0E0FA2A480078401E29490870002025
:101FA000A900224A5050A069002805D161698861C2
:101FB00027496069086005E0A16960694861616955
:101FC000A06988612348006860612248046000F0CD
:101FD00045FAFEF712FC002073E7FFE700F03EFA37
:101FE0003C206EE7F8B50446072C01D13D20F8BD32
:101FF000072C03DBFF2C01D02A20F8E7FF2C09D1A6
:1020000000F025FA0B4800682030877C00F026FAA3
:102010003846ECE700F01BFAA00004490E58002EE9
:102020001AD03E2132208155002516E09C04001074
:10203000443500002C000010230000102200001086
:1020400025000010240000101D0000101F000010CB
:1020500038000010300000100B2500F0FFF9284672
:10206000C5E770B50546072D01DB2A2070BD00F0DD
:10207000EEF9A8006F490C58002C03D100F0EEF9DE
:102080006420F3E72C20005D08210840002824D0BC
:102090002C20005D88432C210855002819D1608D23
:1020A000002816D13120005D634909780843624950
:1020B00008702F20005D6149085C3021095D0843EC
:1020C0002F21095D5D4A505400F0C8F9FEF795FBD9
:1020D00001E000F0C3F90020C8E700F0BFF9652077
:1020E000C4E7FEB504460D46072C03DDFF2C01D0E6
:1020F0002A20FEBD00202860686000F0A8F9FF2CAF
:1021000003D14F4800682030447BA00049490E5855
:10211000002E03D100F0A2F90B20EAE7307CC007C3
:10212000C00F002803D100F099F98220E1E70027D1
:10213000F0680090B068019000F090F900E07F1C1A
:10214000019802C801900029F9D0B80028600098D1
:10215000C01B800068600020CBE770B50546072DE6
:1021600001D15B2070BD072D03DBFF2D01D02A209C
:10217000F8E700F06CF9FF2D05D1314800682030F8
:10218000457B012608E02E4800682030407BA842AD
:1021900001D1012600E00026A80026490C58002C99
:1021A00003D100F05BF95A20DCE72F20005D2349C2
:1021B000085C3021095D88432F21095D1F4A505476
:1021C000002806D13120015D1B48007888431A4958
:1021D00008702C20005D082108432C21085500F0D0
:1021E0003DF9012E01D1FEF708FB0020BAE770B5DA
:1021F00004460E46072C03DDFF2C01D02A2070BDBB
:1022000000F025F9FF2C03D10D4800682030447BF5
:10221000A00008490D58002D03D100F01FF9292016
:10222000EDE734222946304600F004FF00F016F9AD
:102230000020E4E79C04001022000010230000109E
:102240002C00001010B50446002C24DD00F0FFF82F
:102250005D4800682030C07B5C49085C5A490968C9
:102260002031097C8843584909682031C97B574A85
:102270005054002808D1544800682030417C54480C
:1022800000788843524908704F480068448500F040
:10229000E5F8FEF7B2FA10BDFFB581B00D4616465F
:1022A0001C460198002805DC002D03DC002E01DC13
:1022B000002C3ADD3B2D02DD512005B0F0BD3B2E58
:1022C00001DD5220F9E74348844201DD5320F4E761
:1022D0007D21C900614308467D21C90000F094FEBC
:1022E0000146E1221201019850433C226A438018C2
:1022F00080197D22D20050430F18380C0090BFB2D5
:102300003846FFF79FFF0BE00120C003FFF79AFF5D
:102310000120C003FFF796FF0098401E80B2009096
:1023200000980028F0DC0020C7E75420C5E770B50E
:102330000546072D01DB2A2070BD00F088F8A800B3
:1023400025490C58002C29D0608D002822D000206F
:1023500060852C20005D08210840002816D131201E
:10236000005D1B4909780843194908702F20005D5A
:102370001649085C3021095D08432F21095D134A85
:10238000505400F06BF8FEF738FA01E000F066F800
:102390000020D1E700F062F85020CDE700F05EF8B1
:1023A0000B20C9E710B500F052F80C48046800F0A3
:1023B00055F8204610BD10B5044600F048F807480F
:1023C000046000F04BF810BD2C000010230000103A
:1023D00022000010E70300009C04001044000010DD
:1023E00010B5002819DA634A03071B0F083B9B0846
:1023F0009B00D2588307DC0EFF23A3409A438B0730
:102400001B0E8407E40EA3401A435A4B0407240F03
:10241000083CA408A4001A5118E0574A03231B02E1
:10242000D21883089B00D2588307DC0EFF23A340F9
:102430009A438B071B0E8407E40EA3401A434E4BAE
:10244000032424021B198408A4001A5110BD72B67B
:102450004A480068401C494908607047474800687E
:10246000002804D045480068401E4449086043489D
:102470000068002800D162B6704710B5FEF75BF91E
:10248000FEF74AFAFEF765F910BD10B50120C0430A
:1024900000F068F8FF210120C043FFF7A1FF0020F2
:1024A000C04300F05FF880210020C043FFF798FF91
:1024B0007D21C9003248006800F0A6FD314948611D
:1024C00007200861FDF706FE10BD0120000729491D
:1024D0001C394860704770B5044600BFD008C00082
:1024E00001252D060560284E051F28462E60002672
:1024F000051F28462E60051F28462E60051F28460A
:102500002E60051F28462E60051F28462C60051FDB
:1025100028462960051F28462E60051F28462E6084
:10252000051F28462E60051F28462E60051F2846D9
:102530002E60051F28462E60051F28462E60051FA9
:1025400028462E60051F28462E6070BD70477047D4
:1025500000BF704700BF70477047704700BF7047AB
:1025600070477047C206D20E01219140024A1160A5
:10257000704700001CED00E000E100E048000010A2
:102580000000001000E000E0990100002EE0FE4C89
:1025900000F0A5FA207020783C2824D1641C002586
:1025A00011E000F09CFA06462670641C3E2E08D10D
:1025B00004E000202070641C681CC5B2142DF8DBF8
:1025C00003E0681CC5B20A2DEBDB00BFEE48807942
:1025D000262808D1ED480068FEF77AFEEA49EB4864
:1025E0000068FEF75FFF0120FFF72CFECFE710B574
:1025F00004461CE0E6480078082802D10020E4499F
:102600000870E3480078401CE149087008460078EB
:102610004000E049085AE049C96BF02211400843E4
:10262000DD49C8630220FFF70DFE601EC4B2002C16
:10263000E0DC10BD10B504461CE0D5480078002849
:1026400002D10820D2490870D1480078401ED049F4
:102650000870084600784000CE49085ACE49C96B38
:10266000F02211400843CC49C8630220FFF7EAFD7D
:10267000601EC4B2002CE0DC10BD06E0002100E0CA
:10268000491CC64A9142FBD3401E0028F6D1704730
:1026900010B504460020BE49087002E00820FFF78C
:1026A000C9FFBF48C06B202108400028F6D1322066
:1026B000FFF7E3FF0020C043BA4908702046FFF748
:1026C00096FFB948C06B012149028843B649C863E7
:1026D0000846C06B012189028843B349C8630120C1
:1026E000B249087010BD2220B14908700D20487011
:1026F0000820887000BF0878FFF7CAFF0020AD49A6
:102700000870C5E0A848C06BFF21013108400028CF
:102710003CD19F480078002804D09D48047820468A
:10272000FFF788FF02E00820FFF784FF9C48C06B9A
:10273000202108400028F6D1401E9A490870052043
:10274000FFF780FD9A490878FFF751FF9648C06B64
:102750000121490288439449C8630846C06B01219E
:10276000890288439049C86309E0FF20F530FFF7EC
:1027700069FD9148C06B402148408F49C8638A4831
:10278000C06BFF21013108400028EED08948007855
:1027900000287AD18448C06B0007000F8749087071
:1027A00008460078401C40B28549087083490020E3
:1027B00008567C4900228A56904266D07F48002104
:1027C000415600295ADB7A4840787C4900228A56D3
:1027D000904253DD7448C06B0121890288437249DD
:1027E000C8630846C06B0121490208436E49C863AB
:1027F0007249002008566B4900228A56904211DD2A
:102800006E4800780978401A45B2694989784900CC
:102810006943C8B2FFF7EBFE6849002008566149DA
:10282000087023E06549002008565E4900228A5658
:1028300090421BDA0846007860490978401A45B290
:102840005B49897849006A1C5143C8B2FFF7F2FE20
:102850000520FFF7F7FC564989784906080EFFF76F
:10286000C6FE5649002008564E4908704E48C06BB7
:102870000121490288434C49C86306E04A48C06BBD
:102880000121890208434849C8630120FFF7DAFCA7
:1028900038E708B500BF12E06A4600213B480068EF
:1028A000FEF7A3FD4749384800F092FA041E03DD05
:1028B0002146444800F028F90120FFF7C3FCEBE76C
:1028C00010B50A223A49FF20013000F0EDF9052049
:1028D000FFF7B8FC0A223649FF20013000F0E4F986
:1028E00010BD10B5FDF76AFC374800684021084369
:1028F0003549086035480068000A0002334908601D
:1029000008460068FF2101318843304908600846C5
:1029100000680321490208432C4908602C480068DC
:102920000F2108432A4908602A480068202188436B
:102930002849086010BD00BFE120400200F08AF87D
:10294000FFF7CFFFFFF7BCFF09E01B48C06B40213A
:1029500048401949C863FF20F530FFF773FCF4E7DE
:1029600010B5FDF785FDFDF7CEFE01231A4A0021C3
:102970001A48FFF701FA0323194A00211948FFF703
:10298000FBF90423184A31E0EE0E00104C00001051
:10299000570000105A000010C03F03507C15000083
:1029A000C03F015054000010C03F025052000010C0
:1029B000E40E001056000010C03F005055000010FB
:1029C00053000010020F00100080005000800250E1
:1029D0000080035000800150E008001037290000FB
:1029E000E00C001093280000E00A001000211348BA
:1029F000FFF7C2F90523124A00211248FFF7BCF97C
:102A00000020FEF778FC104908600846006800289E
:102A100001D100BFFEE7FDF741FF002010BD10B55A
:102A2000E120400200F016F8012008494860152016
:102A300001218140064A116000BF10BDE726000059
:102A4000E00E00108D2500004C00001000800040BA
:102A500000E100E070B5044600BF3648006801217F
:102A600009040843334908603348406AC008C0007D
:102A7000314948620846406A012108432E494862AC
:102A80000846806AC008C00088620846806A012142
:102A900008432949886227480068012109048843BE
:102AA0002449086001208861084600680121090363
:102AB00008432049086083202049C86021462048F7
:102AC00000F0A2FA0546280A1C494860E8B20860EE
:102AD0000320C860072088600846466970BD00BFB3
:102AE00016484069C007C00F0028F9D01348006895
:102AF000C0B2704700BF1149496920221140002926
:102B0000F9D00E49086070470BE000BF0B4A5269CC
:102B100020231A40002AF9D00278084B1A60401C82
:102B2000491E0029F1D17047044988680107480F00
:102B300070470000808004408040044000800040D6
:102B4000C0C62D0070B504460D4632209C49086071
:102B50000846446085609B499B4A126890479948A3
:102B6000006870BD70B504460D4616463320944982
:102B70000860084644608560C660944808619149D1
:102B80008F48914A126890478E48006870BD70B5B2
:102B900004460D4634208A49086008464460856032
:102BA0008A48C86087498648874A1268904785489E
:102BB000006870BD70B504460D4635208049086038
:102BC0000846446085607F497F4A126890477D4887
:102BD000006870BD10B53620794908607949784899
:102BE000794A126890477748006810BD10B53720C1
:102BF0007349086073497248734A12689047714874
:102C0000006810BD70B504460D46164638206C4964
:102C10000860084644608560C6606A496A4A12686E
:102C200090476848006870BD70B504460D4672B69E
:102C3000102C02DD62B6022070BDA807800F0028AC
:102C400002D062B60320F7E707210846FFF77AFFB4
:102C5000C6B207210846FFF79AFFC6B20721084609
:102C6000FFF7A8FFC6B207210846FFF76BFFC6B201
:102C70002102072212038818FF2201322946FFF79A
:102C800071FFC6B22102072212038818FF22013207
:102C90002946FFF7B7FFC6B2002E02D062B6012068
:102CA000CAE762B60020C7E710B50346002006E079
:102CB000072424031C19245C0C54521E401C002AB7
:102CC000F6D110BDF7B586B0154672B606988007E6
:102CD000800F002803D062B6032009B0F0BD07982A
:102CE000C01DC4B2280B401CC0B2039001200003D9
:102CF000854211D903980019C0B20490049807289E
:102D000001DD0420E9E7280B401C00030190019835
:102D100000F0E2FB064607E0049401200003019066
:102D2000019800F0D9FB0646002E01D10420D4E71B
:102D3000B008800002902003019A0299FFF7B4FFC7
:102D4000002706E00698C15D0798C21902988154D1
:102D50007F1CAF42F6D320460499FFF7F3FEC0B2C2
:102D6000059020460499FFF712FFC0B20590204657
:102D70000499FFF71FFFC0B2059020460499FFF7A2
:102D8000E1FEC0B205902003019A0299FFF7EAFE26
:102D9000C0B205902003019A0299FFF733FFC0B239
:102DA00005900598002805D062B6304600F06AFB11
:102DB000012092E7304600F065FB62B600208CE708
:102DC000180F0010380F001070000010C05D0000D8
:102DD000F3B587B0054600200690002705900490C3
:102DE00003900024002602907548C06B012149021F
:102DF00008437349C86373A1284600F03FF90028CF
:102E000023D028783C2820D1687A3E281DD1A87983
:102E100004900498262818D101200690E87940B241
:102E20000390287A44B2002C04DB082C02DA01203B
:102E3000059001E0002005900398002804DD039828
:102E4000042801DA012700E00027069801287DD137
:102E5000059801287DD1012F7BD10398012804D04A
:102E600002280AD0032850D11FE058490878FFF7FC
:102E70000FFC00205649087048E05648007820189A
:102E800046B2082E07DD0020514908704F490878E6
:102E9000FFF7FEFB08E04E4806704C498978490070
:102EA0006143C8B2FFF7A3FB30E04A480078001B3B
:102EB00046B2012E15DA012C0BD14449897849001C
:102EC000CA00511AC8B2FFF792FB082040490870A7
:102ED0001AE000203E4908703C490878FFF7D8FB0B
:102EE00012E03B480670394989784900621C514319
:102EF000C8B2FFF79FFB0520FFF7BFFB3349897876
:102F00004906080EFFF773FB00E000BF00BF304921
:102F1000002008562F4908702D4800782B49087169
:102F2000FFF795FA0922FF2101312848FFF7CAFE71
:102F3000FFF794FA28A1E0B20191009027A22AA1FC
:102F4000049B089800F0C0F880B200E001E0029015
:102F50002CE00698012829D1059800280CD1012FD2
:102F60000AD11DA0012323A224A10090089800F0FB
:102F7000ABF880B2029019E0059801280CD1002F1F
:102F80000AD115A002231BA21CA10090089800F0F2
:102F90009BF880B2029009E00FA0032315A217A1AD
:102FA0000090089800F090F880B202900448C06B3E
:102FB0000121490288430249C863029809B0F0BD63
:102FC000C03F02504D4F544F52000000E40E00101D
:102FD00050000010510000103E0000003C4F4B5FBD
:102FE0004D4F544F5200000025732C25632C256350
:102FF0002C2573003C4552524F52000025732C255E
:10300000632C2C257300000030B50B4601460020D0
:103010002022012409E00D46D5409D4205D31D46DE
:103020009540491B2546954040191546521E002DD6
:10303000F1DC30BD03460B439B0703D009E008C910
:10304000121F08C0042AFAD203E00B780370401C58
:10305000491C521EF9D27047D2B201E00270401CE6
:10306000491EFBD270470022F6E710B513460A4608
:1030700004461946FFF7F0FF204610BD30B505465F
:103080002A460B4610781C78521C5B1C002801D085
:10309000A042F7D0002C03D0002802D06D1CEFE72F
:1030A000284630BD064C0125064E05E0E36807CCF6
:1030B0002B430C3C98471034B442F7D3FDF704F887
:1030C0004C3600006C3600000FB410B504A9074B55
:1030D00002AA039800F028F8044602A9002000F094
:1030E000CBF9204610BC08BC04B018477934000066
:1030F00030B47446641E2578641CAB4204D3635D0F
:103100005B00E31830BC18471D46F8E702E008C82A
:10311000121F08C1002AFAD17047002001E001C146
:10312000121F002AFBD17047FFB58FB0054600265D
:1031300006E025280AD0129A119990476D1C761C3A
:1031400028780028F5D1304613B0F0BD0024029451
:103150000121B54A009400E004436D1C2B78084619
:10316000203B98401042F7D128782A280ED002221E
:10317000287801463039092916D802990A2359437B
:103180003039401814436D1C0290F1E7109802C8C2
:1031900002911090002904DA0120400304434842C0
:1031A0000290022004436D1C28782E2817D1042099
:1031B000044368786D1C2A280CD110986D1C02C835
:1031C000009110900BE000990A22514330394018C9
:1031D0006D1C00902878014630390929F3D92878E8
:1031E0006C2810D006DC4C281AD068280ED06A282B
:1031F00017D104E0742813D07A2812D110E00120EE
:10320000400504430CE00121090501E00321090503
:103210000C436978814203D10120000524186D1CFC
:103220006D1C2878692874D006DC00288BD06328B0
:1032300027D0642806D16CE06E2808D073282CD0E3
:10324000752878D0129A11999047761C5FE0600239
:10325000400F022809D003280DD0042810980168D7
:103260000DD00E60001D109051E01098F21701680B
:103270000E604A60F6E7109801680E80F2E70E7063
:10328000F0E710986A4601781173001D1090002035
:10329000507303A80190012005E0109802C8019125
:1032A00010900020C04361070CD5002700E07F1C70
:1032B00000998F420FDA8742F9DB0199C95D002935
:1032C000F5D108E0002700E07F1C8742FCDB019974
:1032D000C95D0029F8D102982146C01B0290129BBB
:1032E000119A00F0B3F88019C61907E00198019906
:1032F0000078491C0191129A119990477F1EF5D2CE
:103300002146129B119A029800F090F886196D1CC4
:1033100016E70A200190109901C910916102490F26
:10332000032900D100B2042900D140B2002803DAF9
:1033300040422D2103E00DE0210504D52B216A46F2
:103340001173012103E0E10711D02021F7E70CAF51
:103350000C9114E00A200190109901C910916102AA
:10336000490F032900D180B2042900D1C0B2002145
:10337000EDE70199FFF748FE30317F1E39700028D4
:10338000F7D104A8C01B20300190600704D50120AC
:1033900000048443009801E00120009001998842D4
:1033A00001DD401A00E00020411800900C98091837
:1033B0000298401A0290E00306D42146129B119A0B
:1033C000029800F043F8861900200D9008E003A948
:1033D000085C129A119990470D98401C761C0D902C
:1033E0000C998842F3DBE0030CD52146129B119A1D
:1033F000029800F02BF8861904E0129A30201199F7
:103400009047761C0099481E00900029F5DC05E0E5
:103410003878129A7F1C11999047761C0199481EA2
:1034200001900029F4DC6BE709280100F8B5044697
:1034300000251E461746880404D405E0394620209E
:10344000B0476D1C641EF9D52846F8BDFFB504468B
:10345000002581B01E46C80301D5302700E0202793
:10346000880404D505E038460399B0476D1C641EF6
:10347000F9D5284605B0F0BD0A68531C0B601070E2
:103480007047000010B5002823D0124B0022001F07
:10349000196803E0814203D80A4649680029F9D136
:1034A000002A0AD01368841A9C4204D100681818B4
:1034B0001060104602E0506000E01860002907D05C
:1034C00002680B1A934203D10B68D2180260496854
:1034D000416010BD74000010F0B50B30C108C90088
:1034E000144F0026144A0FE003688B420BD38B4223
:1034F00005D95C1A4318456830C3083B00E04368AF
:10350000136002C004E0021D10680028ECD13046B0
:10351000002803D13868002801D00020F0BD064AF9
:1035200006481060064A121AD208D20044C0012090
:103530003860D7E778000010740000105C0F0010AE
:10354000580F001001020408102040800000010004
:10355000020001000300010002000100040001005C
:10356000020001000300010002000100050001004B
:10357000020001000300010002000100040001003C
:10358000020001000300010002000100060001002A
:10359000020001000300010002000100040001001C
:1035A000020001000300010002000100050001000B
:1035B00002000100030001000200010004000100FC
:1035C00002000100030001000200010007000100E9
:1035D00002000100030001000200010004000100DC
:1035E00002000100030001000200010005000100CB
:1035F00002000100030001000200010004000100BC
:1036000002000100030001000200010006000100A9
:10361000020001000300010002000100040001009B
:10362000020001000300010002000100050001008A
:10363000020001000300010002000100040001007B
:103640000200010003000100020001006C360000CE
:10365000000000107C0000000C310000E836000083
:103660007C000010DC1000001A310000006CDC024D
:10367000000000000000000000000000000000004A
:10368000000000000000000000000000000000003A
:10369000000000000000000000000000000000002A
:1036A000000000000000000000000000000000001A
:1036B000000000000000000000000000000000000A
:1036C0000101000000000E000A000B0009000D00BF
:1036D0000500070006000E0000000000F11FFF1F9C
:0836E0000000000000000000E2
:04000005000000C136
:00000001FF
